:020000040800F2
:1000000000C00020394F0008ED4D0008EF4D0008FA
:10001000F14D0008F34D0008F54D00080000000008
:10002000000000000000000000000000F74D000884
:10003000F94D000800000000FB4D0008FD4D0008D0
:10004000814F0008814F0008814F0008814F000850
:10005000814F0008814F0008814F0008814F000840
:10006000814F0008814F0008814F00082943000894
:10007000194F0008094F0008814F0008814F000800
:10008000814F0008814F0008814F0008814F000810
:10009000814F0008814F0008814F0008094E000879
:1000A000814F0008814F0008814F0008814F0008F0
:1000B000814F0008294F0008794D0008814F000842
:1000C000814F0008814F0008814F0008814F0008D0
:1000D000814F0008814F0008814F0008814F0008C0
:1000E0007D4E0008814F0008814F0008814F0008B5
:1000F000814F0008814F0008814F0008814F0008A0
:10010000814F0008814F0008814F0008814F00088F
:10011000814F0008814F0008814F0008814F00087F
:10012000814F0008814F0008814F0008814F00086F
:1001300000000000000000000000000000000000BF
:1001400000000000000000000000000000000000AF
:10015000000000000000000000000000000000009F
:10016000000000000000000000000000000000008F
:10017000000000000000000000000000000000007F
:10018000000000000000000000000000000000006F
:10019000000000000000000000000000000000005F
:1001A000000000000000000000000000000000004F
:1001B000000000000000000000000000000000003F
:1001C000000000000000000000000000000000002F
:1001D000000000000000000000000000000000001F
:0401E0005FF8E0F1F3
:1001E80010B5054C237833B9044B13B10448AFF369
:1001F80000800123237010BD900000200000000043
:10020800EC58000808B5034B1BB103490348AFF38A
:10021800008008BD0000000094000020EC58000891
:10022800034613F8012B002AFBD1181A013870472E
:1002380081F0004102E000BF83F0004330B54FEA8F
:1002480041044FEA430594EA050F08BF90EA020FFC
:100258001FBF54EA000C55EA020C7FEA645C7FEA8F
:10026800655C00F0E2804FEA5454D4EB5555B8BFB2
:100278006D420CDD2C4480EA020281EA030382EA23
:10028800000083EA010180EA020281EA0303362DB5
:1002980088BF30BD11F0004F4FEA01314FF4801C88
:1002A8004CEA113102D0404261EB410113F0004F9A
:1002B8004FEA03334CEA133302D0524263EB430351
:1002C80094EA050F00F0A780A4F10104D5F1200EEF
:1002D8000DDB02FA0EFC22FA05F2801841F100014A
:1002E80003FA0EF2801843FA05F359410EE0A5F11E
:1002F80020050EF1200E012A03FA0EFC28BF4CF04F
:10030800020C43FA05F3C01851EBE37101F0004504
:1003180007D54FF0000EDCF1000C7EEB00006EEB11
:100328000101B1F5801F1BD3B1F5001F0CD349089B
:100338005FEA30004FEA3C0C04F101044FEA4452F2
:1003480012F5800F80F09A80BCF1004F08BF5FEA79
:10035800500C50F1000041EB045141EA050130BD59
:100368005FEA4C0C404141EB0101013C28BFB1F56B
:10037800801FE9D291F0000F04BF01460020B1FAB6
:1003880081F308BF2033A3F10B03B3F120020CDA89
:100398000C3208DD02F1140CC2F10C0201FA0CF067
:1003A80021FA02F10CE002F11402D8BFC2F1200CCC
:1003B80001FA02F120FA0CFCDCBF41EA0C01904082
:1003C800E41AA2BF01EB0451294330BD6FEA0404CB
:1003D8001F3C1CDA0C340EDC04F11404C4F12002B6
:1003E80020FA04F001FA02F340EA030021FA04F3C8
:1003F80045EA030130BDC4F10C04C4F1200220FA1F
:1004080002F001FA04F340EA0300294630BD21FA5C
:1004180004F0294630BD94F0000F83F4801306BF22
:1004280081F480110134013D4EE77FEA645C18BF16
:100438007FEA655C29D094EA050F08BF90EA020FAD
:1004480005D054EA000C04BF1946104630BD91EAA5
:10045800030F1EBF0021002030BD5FEA545C05D1A8
:100468004000494128BF41F0004130BD14F58004E7
:100478003CBF01F5801130BD01F0004545F0FE415B
:1004880041F470014FF0000030BD7FEA645C1ABF90
:10049800194610467FEA655C1CBF0B46024650EAC7
:1004A800013406BF52EA033591EA030F41F40021F3
:1004B80030BD00BF90F0000F04BF0021704730B579
:1004C8004FF4806404F132044FF000054FF000014E
:1004D80050E700BF90F0000F04BF0021704730B50F
:1004E8004FF4806404F1320410F0004548BF4042E4
:1004F8004FF000013EE700BF42004FEAE2014FEA39
:1005080031014FEA02701FBF12F07F4393F07F4F13
:1005180081F06051704732F07F4208BF704793F016
:100528007F4F04BF41F40021704730B54FF4607429
:1005380001F0004521F000411CE700BF50EA01022C
:1005480008BF704730B54FF000050AE050EA0102D5
:1005580008BF704730B511F0004502D5404261EB45
:1005680041014FF4806404F132045FEA915C3FF486
:10057800D8AE4FF003025FEADC0C18BF03325FEA23
:10058800DC0C18BF033202EBDC02C2F1200300FAD4
:1005980003FC20FA02F001FA03FE40EA0E0021FAF9
:1005A80002F11444BDE600BF70B54FF0FF0C4CF4E7
:1005B800E06C1CEA11541DBF1CEA135594EA0C0F99
:1005C80095EA0C0F00F0DEF82C4481EA030621EAD4
:1005D8004C5123EA4C5350EA013518BF52EA03350F
:1005E80041F4801143F4801338D0A0FB02CE4FF0C1
:1005F8000005E1FB02E506F00042E0FB03E54FF0F1
:100608000006E1FB03569CF0000F18BF4EF0010EE8
:10061800A4F1FF04B6F5007F64F5407404D25FEAE4
:100628004E0E6D4146EB060642EAC62141EA555197
:100638004FEAC52040EA5E504FEACE2EB4F1FD0CD9
:1006480088BFBCF5E06F1ED8BEF1004F08BF5FEA57
:10065800500E50F1000041EB045170BD06F0004609
:1006680046EA010140EA020081EA0301B4EB5C04B6
:10067800C2BFD4EB0C0541EA045170BD41F48011AE
:100688004FF0000E013C00F3AB8014F1360FDEBFD3
:10069800002001F0004170BDC4F10004203C35DAAF
:1006A8000C341BDC04F11404C4F1200500FA05F332
:1006B80020FA04F001FA05F240EA020001F00042D3
:1006C80021F0004110EBD37021FA04F642EB060149
:1006D8005EEA430E08BF20EAD37070BDC4F10C0473
:1006E800C4F1200500FA04F320FA05F001FA04F237
:1006F80040EA020001F0004110EBD37041F1000123
:100708005EEA430E08BF20EAD37070BDC4F120052D
:1007180000FA05F24EEA020E20FA04F301FA05F295
:1007280043EA020321FA04F001F0004121FA04F23D
:1007380020EA020000EBD3705EEA430E08BF20EA0D
:10074800D37070BD94F0000F0FD101F00046400047
:1007580041EB010111F4801F08BF013CF7D041EAC9
:10076800060195F0000F18BF704703F000465200CD
:1007780043EB030313F4801F08BF013DF7D043EA9E
:100788000603704794EA0C0F0CEA135518BF95EA54
:100798000C0F0CD050EA410618BF52EA4306D1D1DB
:1007A80081EA030101F000414FF0000070BD50EAFA
:1007B800410606BF1046194652EA430619D094EA84
:1007C8000C0F02D150EA013613D195EA0C0F05D16E
:1007D80052EA03361CBF104619460AD181EA0301C2
:1007E80001F0004141F0FE4141F470014FF000007A
:1007F80070BD41F0FE4141F4780170BD70B54FF015
:10080800FF0C4CF4E06C1CEA11541DBF1CEA135594
:1008180094EA0C0F95EA0C0F00F0A7F8A4EB050476
:1008280081EA030E52EA03354FEA013100F088806D
:100838004FEA03334FF0805545EA131343EA126336
:100848004FEA022245EA111545EA10654FEA0026EB
:100858000EF000419D4208BF964244F1FD0404F5A4
:10086800407402D25B084FEA3202B61A65EB030500
:100878005B084FEA32024FF480104FF4002CB6EBBD
:10088800020E75EB030E22BFB61A754640EA0C003D
:100898005B084FEA3202B6EB020E75EB030E22BF7D
:1008A800B61A754640EA5C005B084FEA3202B6EBBE
:1008B800020E75EB030E22BFB61A754640EA9C007D
:1008C8005B084FEA3202B6EB020E75EB030E22BF4D
:1008D800B61A754640EADC0055EA060E18D04FEA0B
:1008E800051545EA16754FEA06164FEAC30343EAAB
:1008F80052734FEAC2025FEA1C1CC0D111F4801F78
:100908000BD141EA00014FF000004FF0004CB6E770
:1009180011F4801F04BF01430020B4F1FD0C88BF0F
:10092800BCF5E06F3FF6AFAEB5EB030C04BFB6EB1A
:10093800020C5FEA500C50F1000041EB045170BD0D
:100948000EF0004E4EEA113114EB5C04C2BFD4EB3A
:100958000C0541EA045170BD41F480114FF0000EBE
:10096800013C90E645EA060E8DE60CEA135594EA3A
:100978000C0F08BF95EA0C0F3FF43BAF94EA0C0F3D
:100988000AD150EA01347FF434AF95EA0C0F7FF4B2
:1009980025AF104619462CE795EA0C0F06D152EA06
:1009A80003353FF4FDAE1046194622E750EA4106EA
:1009B80018BF52EA43067FF4C5AE50EA41047FF4FB
:1009C8000DAF52EA43057FF4EBAE12E74FF0FF3C60
:1009D80006E000BF4FF0010C02E000BF4FF0010C31
:1009E8004DF804CD4FEA410C7FEA6C5C4FEA430CAA
:1009F80018BF7FEA6C5C1BD001B050EA410C0CBFF9
:100A080052EA430C91EA030F02BF90EA020F00205A
:100A1800704710F1000F91EA030F58BF994208BFC1
:100A280090422CBFD8176FEAE37040F0010070477E
:100A38004FEA410C7FEA6C5C02D150EA013C07D1D5
:100A48004FEA430C7FEA6C5CD6D152EA033CD3D020
:100A58005DF8040B704700BF8446104662468C461A
:100A68001946634600E000BF01B5FFF7B7FF00284D
:100A780048BF10F1000F01BD4DF808EDFFF7F4FF76
:100A88000CBF012000205DF808FB00BF4DF808ED01
:100A9800FFF7EAFF34BF012000205DF808FB00BF24
:100AA8004DF808EDFFF7E0FF94BF012000205DF846
:100AB80008FB00BF4DF808EDFFF7CEFF94BF0120FB
:100AC80000205DF808FB00BF4DF808EDFFF7C4FFF4
:100AD80034BF012000205DF808FB00BF4FEA410247
:100AE80012F5001215D211D56FF47873B3EB625278
:100AF80012D94FEAC12343F0004343EA505311F09F
:100B0800004F23FA02F018BF404270474FF0000030
:100B1800704750EA013005D111F0004008BF6FF06E
:100B2800004070474FF00000704700BF4FEA410295
:100B3800B2F1E04324BFB3F5001CDCF1FE5C0DD933
:100B480001F0004C4FEAC0024CEA5070B2F1004F7D
:100B580040EB830008BF20F00100704711F0804F80
:100B680021D113F13872BCBF01F00040704741F445
:100B780080114FEA5252C2F11802C2F1200C10FA49
:100B88000CF320FA02F018BF40F001004FEAC1232D
:100B98004FEAD32303FA0CFC40EA0C0023FA02F3D1
:100BA8004FEA4303CCE77FEA625307D150EA0133A7
:100BB8001EBF4FF0FE4040F44000704701F0004077
:100BC80040F0FE4040F40000704700BF80F0004055
:100BD80002E000BF81F0004142001FBF5FEA41030D
:100BE80092EA030F7FEA226C7FEA236C6AD04FEA0D
:100BF8001262D2EB1363C1BFD21841404840414052
:100C0800B8BF5B42192B88BF704710F0004F40F403
:100C1800000020F07F4018BF404211F0004F41F41F
:100C2800000121F07F4118BF494292EA030F3FD0EB
:100C3800A2F1010241FA03FC10EB0C00C3F12003FE
:100C480001FA03F100F0004302D5494260EB40008D
:100C5800B0F5000F13D3B0F1807F06D340084FEAF8
:100C6800310102F10102FE2A51D2B1F1004F40EBED
:100C7800C25008BF20F0010040EA03007047490055
:100C880040EB0000013A28BFB0F5000FEDD2B0FAF2
:100C980080FCACF1080CB2EB0C0200FA0CF0AABF15
:100CA80000EBC25052421843BCBFD04018437047B3
:100CB80092F0000F81F4000106BF80F400000132B9
:100CC800013BB5E74FEA41037FEA226C18BF7FEA90
:100CD800236C21D092EA030F04D092F0000F08BFD2
:100CE8000846704790EA010F1CBF0020704712F0B9
:100CF8007F4F04D1400028BF40F00040704712F1F8
:100D080000723CBF00F50000704700F0004343F05C
:100D1800FE4040F4000070477FEA226216BF084692
:100D28007FEA23630146420206BF5FEA412390EA55
:100D3800010F40F4800070474FF0000304E000BF4B
:100D480010F0004348BF40425FEA000C08BF7047FC
:100D580043F0964301464FF000001CE050EA0102C0
:100D680008BF70474FF000030AE000BF50EA0102D5
:100D780008BF704711F0004302D5404261EB4101C2
:100D88005FEA010C02BF84460146002043F0B643E7
:100D980008BFA3F18053A3F50003BCFA8CF2083A0C
:100DA800A3EBC25310DB01FA02FC634400FA02FC15
:100DB800C2F12002BCF1004F20FA02F243EB02001C
:100DC80008BF20F00100704702F1200201FA02FC7E
:100DD800C2F1200250EA4C0021FA02F243EB020071
:100DE80008BF20EADC7070474FF0FF0C1CEAD052B5
:100DF8001EBF1CEAD15392EA0C0F93EA0C0F6FD076
:100E08001A4480EA010C400218BF5FEA41211ED053
:100E18004FF0006343EA501043EA5111A0FB01313F
:100E28000CF00040B1F5000F3EBF490041EAD37114
:100E38005B0040EA010062F17F02FD2A1DD8B3F190
:100E4800004F40EBC25008BF20F00100704790F0FF
:100E5800000F0CF0004C08BF49024CEA502040EA51
:100E680051207F3AC2BFD2F1FF0340EAC250704717
:100E780040F400004FF00003013A5DDC12F1190F55
:100E8800DCBF00F000407047C2F10002410021FAC7
:100E980002F1C2F1200200FA02FC5FEA310040F1DF
:100EA800000053EA4C0308BF20EADC70704792F058
:100EB800000F00F0004C02BF400010F4000F013A90
:100EC800F9D040EA0C0093F0000F01F0004C02BF8B
:100ED800490011F4000F013BF9D041EA0C018FE7FA
:100EE8000CEAD15392EA0C0F18BF93EA0C0F0AD000
:100EF80030F0004C18BF31F0004CD8D180EA010026
:100F080000F00040704790F0000F17BF90F0004FBE
:100F1800084691F0000F91F0004F14D092EA0C0FA0
:100F280001D142020FD193EA0C0F03D14B0218BF33
:100F3800084608D180EA010000F0004040F0FE4079
:100F480040F40000704740F0FE4040F44000704715
:100F58004FF0FF0C1CEAD0521EBF1CEAD15392EA94
:100F68000C0F93EA0C0F69D0A2EB030280EA010C84
:100F780049024FEA402037D04FF0805343EA11111D
:100F880043EA10130CF000408B4238BF5B0042F17B
:100F98007D024FF4000C8B4224BF5B1A40EA0C0020
:100FA800B3EB510F24BFA3EB510340EA5C00B3EB52
:100FB800910F24BFA3EB910340EA9C00B3EBD10F40
:100FC80024BFA3EBD10340EADC001B0118BF5FEA92
:100FD8001C1CE0D1FD2A3FF650AF8B4240EBC250BB
:100FE80008BF20F0010070470CF0004C4CEA50207C
:100FF8007F32C2BFD2F1FF0340EAC250704740F4CB
:1010080000004FF00003013A37E792F0000F00F0BC
:10101800004C02BF400010F4000F013AF9D040EA3A
:101028000C0093F0000F01F0004C02BF490011F4CE
:10103800000F013BF9D041EA0C0195E70CEAD153C6
:1010480092EA0C0F08D142027FF47DAF93EA0C0FAD
:101058007FF470AF084676E793EA0C0F04D14B0291
:101068003FF44CAF08466EE730F0004C18BF31F043
:10107800004CCAD130F000427FF45CAF31F000433D
:101088007FF43CAF5FE700BF4FF0FF3C06E000BFD6
:101098004FF0010C02E000BF4FF0010C4DF804CDF9
:1010A8004FEA40024FEA41037FEA226C18BF7FEA09
:1010B800236C11D001B052EA530C18BF90EA010F0B
:1010C80058BFB2EB030088BFC81738BF6FEAE1709A
:1010D80018BF40F0010070477FEA226C02D15FEA36
:1010E800402C05D17FEA236CE4D15FEA412CE1D0A2
:1010F8005DF8040B704700BF844608466146FFE769
:101108000FB5FFF7C9FF002848BF10F1000F0FBD4A
:101118004DF808EDFFF7F4FF0CBF012000205DF843
:1011280008FB00BF4DF808EDFFF7EAFF34BF0120C8
:1011380000205DF808FB00BF4DF808EDFFF7E0FF61
:1011480094BF012000205DF808FB00BF4DF808EDB2
:10115800FFF7D2FF94BF012000205DF808FB00BF15
:101168004DF808EDFFF7C8FF34BF012000205DF8F7
:1011780008FB00BF4FEA4002B2F1FE4F0FD34FF019
:101188009E03B3EB12620DD94FEA002343F00043EC
:1011980010F0004F23FA02F018BF404270474FF09A
:1011A8000000704712F1610F01D1420205D110F021
:1011B800004008BF6FF0004070474FF000007047D4
:1011C80082B0084B1B68084AA2FB03235B0A00FB9A
:1011D80003F3019300BF019B5A1E0192002BF9D122
:1011E80002B0704700000020D34D621070B582B085
:1011F8000446036813F0010F2CD09A4B5B6803F088
:101208000C03042B1DD0974B5B6803F00C03082BD1
:1012180012D06368B3F5803F41D0002B55D103F15C
:10122800804303F504331A6822F480321A601A687E
:1012380022F480221A6037E08A4B5B6813F4803FFF
:10124800E7D0884B1B6813F4003F03D06368002B7A
:1012580000F0AE81236813F0020F75D0814B5B68F4
:1012680013F00C0F5FD07F4B5B6803F00C03082B67
:1012780054D02369002B00F08A807B4B01221A602E
:1012880001F0AEF90546774B1B6813F0020F75D1D4
:1012980001F0A6F9401B0228F5D903208DE1714A17
:1012A800136843F480331360636843B301F098F91B
:1012B80005466C4B1B6813F4003FCBD101F090F945
:1012C800401B6428F5D9032077E1B3F5A02F09D096
:1012D800644B1A6822F480321A601A6822F4802259
:1012E8001A60E1E703F18043A3F53C331A6842F43E
:1012F80080221A601A6842F480321A60D4E701F03A
:101308006FF90546574B1B6813F4003FA2D001F054
:1013180067F9401B6428F5D903204EE1514B5B68FF
:1013280013F4803FA5D14F4B1B6813F0020F03D075
:101338002369012B40F03E814A4A136823F0F803E1
:10134800616943EAC1031360236813F0080F33D0BF
:10135800A369002B5CD0444B0122C3F8802401F020
:101368003FF905463F4B5B6A13F0020F21D101F0AC
:1013780037F9401B0228F5D903201EE1394A1368C2
:1013880023F0F803616943EAC1031360DCE7364BD5
:1013980000221A6001F024F90546324B1B6813F04D
:1013A800020FD1D001F01CF9401B0228F5D9032007
:1013B80003E10120FFF704FF236813F0040F00F096
:1013C8009780284BDB6913F0805F34D1254BDA69AD
:1013D80042F08052DA61DB6903F080530193019B8C
:1013E8000125224B1B6813F4807F26D0E368012B6C
:1013F8003ED0002B54D103F1804303F504331A6A1D
:1014080022F001021A621A6A22F004021A6234E017
:10141800154B0022C3F8802401F0E2F80546114B71
:101428005B6A13F0020FC7D001F0DAF8401B0228FC
:10143800F5D90320C1E00025D3E70C4A136843F42B
:101448008073136001F0CCF80646084B1B6813F450
:10145800807FCBD101F0C4F8801B6428F5D9032024
:10146800ABE000BF001002400000424200700040A4
:10147800544A136A43F001031362E36833B301F07B
:10148800AFF806464F4B1B6A13F0020F2FD101F03D
:10149800A7F8801B41F288339842F3D903208CE0E7
:1014A800052B09D0474B1A6A22F001021A621A6A00
:1014B80022F004021A62E0E7424B1A6A42F0040280
:1014C8001A621A6A42F001021A62D6E701F088F835
:1014D80006463C4B1B6A13F0020F08D001F080F857
:1014E800801B41F288339842F3D9032065E0E5B9BF
:1014F800E369002B60D0334A526802F00C02082AD4
:101508005DD0022B17D0304B00221A6601F068F824
:1015180004462C4B1B6813F0007F47D001F060F89D
:10152800001B0228F5D9032047E0264AD36923F097
:101538008053D361DCE7244B00221A6601F050F88F
:101548000546204B1B6813F0007F06D001F048F8D1
:10155800401B0228F5D903202FE0236AB3F5803F0A
:101568001AD018494B6823F47413226A606A02433C
:1015780013434B60144B01221A6601F031F80446FC
:10158800104B1B6813F0007F0ED101F029F8001BE7
:101598000228F5D9032010E00A4A536823F40033DF
:1015A800A1680B435360DCE7002006E0002004E05C
:1015B800012002E0012000E0002002B070BD0120FF
:1015C800FBE700BF001002400000424286B0174B04
:1015D8000FCB0DF1180C0CE90F0040F20123ADF808
:1015E8000430134B5B6803F00C02082A02D0114840
:1015F80006B07047C3F3834218326A4412F8100CDD
:1016080013F4803F0DD00A4B5B68C3F34043183393
:101618006B4413F8142C074BB3FBF2F303FB00F0F5
:10162800E6E7054B03FB00F0E2E700BF04590008BA
:101638000010024000127A0000093D0070B504460F
:101648000D46594B1B6803F007038B420BD2564AD1
:10165800136823F007030B431360136803F00703B1
:101668008B4240F09A80236813F0020F06D04F4A4D
:10167800536823F0F003A1680B435360236813F009
:10168800010F52D06368012B23D0022B28D0474A80
:10169800126812F0020F00F0828044494A6822F072
:1016A800030213434B6000F09BFF06466368012B5F
:1016B8001DD0022B2AD03D4B5B6813F00C0F34D0A1
:1016C80000F08EFF831B41F288329342F3D9032046
:1016D80062E0364A126812F4003FDED101205BE076
:1016E800324A126812F0007FD7D1012054E02F4B04
:1016F8005B6803F00C03042B17D000F071FF831B09
:1017080041F288329342F2D9032045E0274B5B68C7
:1017180003F00C03082B08D000F062FF801B41F295
:1017280088339842F2D9032036E01F4B1B6803F038
:101738000703AB420AD91C4A136823F007032B435B
:101748001360136803F00703AB422AD1236813F030
:10175800040F06D0154A536823F4E063E1680B438D
:101768005360236813F0080F07D0104A536823F416
:101778006053216943EAC1035360FFF727FF0B4B0E
:101788005B68C3F303130A4AD35CD840094B18605B
:10179800002000F0F5FE002070BD0120FCE70120CC
:1017A800FAE70120F8E700BF0020024000100240DD
:1017B8001859000800000020014B1868704700BF46
:1017C8000000002008B5FFF7F7FF044B5B68C3F380
:1017D8000223034AD35CD84008BD00BF0010024072
:1017E8002859000808B5FFF7E7FF044B5B68C3F307
:1017F800C223034AD35CD84008BD00BF0010024092
:101808002859000830B4036A23F001030362036A0D
:101818004268846924F073040D682C4323F0020C99
:101828008B6843EA0C03104DA84203D005F5006508
:10183800A84205D123F00803CD682B4323F0040305
:10184800094DA84203D005F50065A84205D122F448
:1018580040724D692A438D692A43426084614A680F
:101868004263036230BC7047002C014030B4036A05
:1018780023F480730362036A4268C46924F0730C1A
:101888000C6844EA0C0523F400738C6843EA0423CB
:10189800114CA04203D004F50064A04206D123F401
:1018A8000063CC6843EA042323F480630A4CA04213
:1018B80003D004F50064A04207D122F440524C69D9
:1018C80042EA04128C6942EA04124260C5614A681D
:1018D800C263036230BC7047002C014030B4036A15
:1018E80023F480530362036A4468C26922F4E6421F
:1018F8000D6842EA052223F400538D6843EA053354
:10190800094DA84203D005F50065A84204D124F486
:1019180080444D6944EA85144460C2614A6802649F
:10192800036230BC704700BF002C014010B4036A4A
:10193800046A24F001040462846924F0F00C4CEA7F
:10194800021223F00A030B438261036210BC704742
:1019580010B4046A24F0100404628469036A24F44D
:10196800704C4CEA023223F0A00343EA011382616F
:10197800036210BC7047836823F0700341F00701CD
:1019880019438160704710B4846824F47F4C42EA9C
:1019980003220A4342EA0C02826010BC704710B569
:1019A8000468A26822F070024B68134323F007030F
:1019B8000A681343A3604B68602B24D009D8402BD6
:1019C80010D0502B0DD10A6989680068FFF7AEFF67
:1019D80007E0702B05D10B698A68C9680068FFF7B2
:1019E800D2FF10BD03681C6A1A6A22F001021A624B
:1019F8000268936923F0F003096943EA01139361CC
:101A080003681C62EDE70A6989680068FFF7A0FFB0
:101A1800E7E77047022380F83D300268136843F017
:101A280001031360012380F83D30002070470268ED
:101A3800D36843F00103D3600268136843F00103DD
:101A4800136000207047704790F83C30012B7ED01F
:101A580010B50446012380F83C30022380F83D305D
:101A68000268936823F47F4323F0770393600B683D
:101A7800502B49D019D8202B5FD00DD9302B61D0ED
:101A8800402B3AD1CA6849680068FFF74FFF4021E8
:101A98002068FFF770FF30E0002B49D0102B2CD1C5
:101AA80010210068FFF767FF27E0B3F5805F1FD0BC
:101AB8000ED9B3F5005F20D1CB684A688968006801
:101AC800FFF761FF2268936843F48043936014E052
:101AD800602B23D0702B10D1CB684A6889680068C6
:101AE800FFF751FF2268936843F07703936004E09F
:101AF8000268936823F007039360012384F83D305C
:101B0800002084F83C0010BDCA6849680068FFF7E7
:101B18000DFF50212068FFF72EFFEEE7CA684968DD
:101B28000068FFF715FF60212068FFF724FFE4E74E
:101B380000210068FFF71FFFDFE720210068FFF79B
:101B48001AFFDAE730210068FFF715FFD5E7022012
:101B5800704738B590F83C30012B18D00446012561
:101B680080F83C50022380F83D30FFF718FF2268C8
:101B7800D36823F04003D3602268D36823F48043FA
:101B8800D36084F83D50002084F83C0038BD022022
:101B9800FCE7704770477047704710B50446036804
:101BA8001A6912F0020F11D0DA6812F0020F0DD084
:101BB8006FF002021A610123037703689B6913F02F
:101BC800030F70D0FFF7E6FF0023237723681A6915
:101BD80012F0040F12D0DA6812F0040F0ED06FF072
:101BE80004021A610223237723689B6913F4407F58
:101BF8005FD02046FFF7CEFF0023237723681A69BA
:101C080012F0080F12D0DA6812F0080F0ED06FF039
:101C180008021A61042323772368DB6913F0030F92
:101C28004ED02046FFF7B6FF0023237723681A69B2
:101C380012F0100F12D0DA6812F0100F0ED06FF0F9
:101C480010021A61082323772368DB6913F4407FA5
:101C58003DD02046FFF79EFF0023237723681A69AB
:101C680012F0010F03D0DA6812F0010F36D12368A1
:101C78001A6912F0800F03D0DA6812F0800F34D19D
:101C880023681A6912F0400F03D0DA6812F0400F87
:101C980032D123681A6912F0200F03D0DA6812F0E3
:101CA800200F30D110BDFFF774FF2046FFF773FFF8
:101CB8008AE72046FFF76DFF2046FFF76CFF9BE79A
:101CC8002046FFF766FF2046FFF765FFACE7204692
:101CD800FFF75FFF2046FFF75EFFBDE76FF00102E9
:101CE8001A61204602F0CCFAC1E76FF080021A614F
:101CF800204600F0D4F9C3E76FF040021A6120468D
:101D0800FFF74AFFC5E76FF020021A61204600F08E
:101D1800C5F9C7E70368244A904212D002F5006269
:101D280090420ED0B0F1804F0BD0A2F5983290427D
:101D380007D002F58062904203D002F5806290429B
:101D480003D123F070034A681343174A904212D014
:101D580002F5006290420ED0B0F1804F0BD0A2F590
:101D68009832904207D002F58062904203D002F583
:101D78008062904203D123F44073CA68134323F06E
:101D880080034A69134303608B68C3620B688362EC
:101D9800054B984203D003F50063984201D10B69C3
:101DA8000363012343617047002C0140B0B110B5B3
:101DB800044690F83D3063B1022384F83D30214653
:101DC80051F8040BFFF7A6FF012384F83D300020EB
:101DD80010BD80F83C30FFF71CFEEDE7012070478E
:101DE800B0B110B5044690F83D3063B1022384F8D1
:101DF8003D30214651F8040BFFF78CFF012384F88E
:101E08003D30002010BD80F83C30FFF71CFEEDE7A8
:101E18000120704730B4036A23F010030362036A99
:101E28004468826922F4E6420D6842EA052223F0FA
:101E380020038D6843EA0513114DA84203D005F528
:101E48000065A84206D123F08003CD6843EA051354
:101E580023F040030A4DA84203D005F50065A842C7
:101E680007D124F440644D6944EA85048D6944EA45
:101E78008504446082614A688263036230BC7047AB
:101E8800002C014038B590F83C30012B66D0044650
:101E98000D46012380F83C30022380F83D300C2A9F
:101EA8001AD8DFE802F00719191920191919341975
:101EB800191947000068FFF7A5FC2268936943F0E9
:101EC800080393612268936923F0040393612268ED
:101ED800936929690B439361012384F83D300020FD
:101EE80084F83C0038BD0068FFF794FF22689369C6
:101EF80043F4006393612268936923F480639361D8
:101F080022689369296943EA01239361E4E7006839
:101F1800FFF7ACFC2268D36943F00803D361226859
:101F2800D36923F00403D3612268D36929690B4379
:101F3800D361D1E70068FFF7D1FC2268D36943F485
:101F48000063D3612268D36923F48063D361226874
:101F5800D369296943EA0123D361BDE70220C1E7B8
:101F6800012303FA01FC036A23EA0C030362036AF0
:101F780002FA01F10B4303627047000010B50446F2
:101F880001220068FFF7ECFF2368094A934203D057
:101F980002F50062934203D15A6C42F400425A643B
:101FA8002268136843F001031360002010BD00BFCE
:101FB800002C0140042303FA01FC036A23EA0C0302
:101FC8000362036A02FA01F10B430362704710B51A
:101FD800044604220068FFF7EDFF2268536C43F4BF
:101FE800004353642268136843F001031360002020
:101FF80010BD90F83C30012B25D0012380F83C30EF
:10200800CB6823F440738A68134323F480634A68D7
:10201800134323F400630A68134323F480530A69C3
:10202800134323F400534A69134323F480438A6912
:10203800134323F40043134302685364002380F8D6
:102048003C30184670470220704790F83C30012B0E
:1020580022D030B4012280F83C20022380F83D30A1
:102068000468636823F070036360046863680D683C
:102078002B4363600468A36823F08003A3600468AB
:10208800A36849680B43A36080F83D20002380F8CB
:102098003C30184630BC7047022070477047704784
:1020A80090F82420012A25D08CB00346012280F81C
:1020B8002420114A00920268906810F0010F07D19D
:1020C8000D48806810F0010F02D10C48824209D0F7
:1020D8009A6A42F020029A620120002283F82420A2
:1020E8000CB07047506820F47020096801435160B3
:1020F8000020F2E702207047002801400024014038
:10210800074AD36823F4E0631B041B0C000200F4A5
:10211800E060034343F0BF6343F40033D360704788
:1021280000ED00E000B5194BDB68C3F30223C3F1EF
:10213800070CBCF1040F28BF4FF0040C03F1040E88
:10214800BEF1060F18D9033B4FF0FF3E0EFA0CFC08
:1021580021EA0C0199400EFA03F322EA030319431A
:1021680000280BDB0901C9B200F1604000F56140AD
:1021780080F800135DF804FB0023E5E700F00F008A
:102188000901C9B2024B1954F4E700BF00ED00E0A1
:1021980014ED00E000F01F02400901239340024AB9
:1021A80042F82030704700BF00E100E00138B0F18C
:1021B800807F0BD24FF0E0235861054AF02182F866
:1021C80023100020986107221A6170470120704788
:1021D80000ED00E0042806D04FF0E022136923F058
:1021E8000403136170474FF0E022136943F00403BE
:1021F80013617047704708B5FFF7FCFF08BD000082
:1022080070B582B00024A446B0E0874DAA4210D031
:1022180007D9864DAA420CD005F58035AA4208D0C8
:1022280013E0A5F58015AA4203D005F57025AA424A
:1022380007D18A68002A62D0012A5BD0436108244A
:1022480003E0A5F58015AA42F3D0BEF1FF0F58D8D8
:102258000646BEF1FF0F56D84FEA8C0233680F25A9
:10226800954023EA050304FA02F2134333604B68EE
:1022780013F0805F78D06E4B9A6942F001029A6140
:102288009B6903F001030193019B4FEA9C02951C93
:10229800684B53F825600CF003039D000F23AB40F7
:1022A80026EA0306644B984233D003F580639842CC
:1022B80000F0988003F58063984200F0958003F55C
:1022C8008063984200F0928003F58063984200F0A2
:1022D8008F8003F58063984219D006231AE0CC68F2
:1022E800B3E7CC680434B0E7CC680834ADE7CC6811
:1022F8000C34AAE703610824A7E70024A5E704240F
:10230800A3E7061DA5E7ACF108029200A6E705239E
:1023180000E00023AB4033430232464D45F82230FB
:102328004B6813F4803F65D0444A136843EA0E03B0
:1023380013604B6813F4003F62D0404A536843EA85
:102348000E0353604B6813F4801F5FD03B4A9368B9
:1023580043EA0E0393604B6813F4001F5CD0374ABE
:10236800D36843EA0E03D3600CF1010CBCF10F0FE4
:1023780058D8012303FA0CF30A6802EA030E33EA79
:102388000202F1D14A68122A3FF63FAF122A3FF6FD
:102398005CAF01A555F822F03B220008E7220008AF
:1023A800F1220008032300085322000853220008E2
:1023B8005322000853220008532200085322000821
:1023C8005322000853220008532200085322000811
:1023D800532200085322000853220008EB22000869
:1023E800F7220008012395E7022393E7032391E7E7
:1023F80004238FE7114A136823EA0E03136098E752
:102408000E4A536823EA0E0353609BE70B4A93680E
:1024180023EA0E0393609EE7084AD36823EA0E0373
:10242800D360A1E702B070BD000022100000311097
:102438000010024000000140000801400004014073
:102448008368194201D001207047002070470AB103
:1024580001617047090401617047C3685940C16050
:102468007047000070B582B00446036813F0010F8E
:1024780036D03F4BDB6913F0805F49D13C4BDA69BA
:1024880042F08052DA61DB6903F080530193019BCB
:102498000125384B1B6813F4807F3BD0344B1B6AF3
:1024A80013F4407313D0626802F440729A420ED05B
:1024B8002F4A136A23F440702F490126C1F840645B
:1024C8000026C1F84064106213F0010F36D1284A83
:1024D800136A23F4407361680B431362002D3ED1E5
:1024E800236813F0020F06D0214A536823F44043AF
:1024F800A1680B435360236813F0100F34D01C4AB3
:10250800536823F4800361690B43536000202CE077
:102518000025BEE7174A136843F48073136000F080
:102528005FF80646134B1B6813F4807FB6D100F0A2
:1025380057F8801B6428F5D9032016E000F050F8FE
:1025480006460B4B1B6A13F0020FC0D100F048F887
:10255800801B41F288339842F3D9032005E0D36900
:1025680023F08053D361BBE7002002B070BD00BFE9
:102578000010024000700040000042427047000016
:1025880010B50446074B1868074BA3FB00308009B9
:10259800FFF70CFE002221464FF0FF30FFF7C2FD87
:1025A800002010BD00000020D34D621008B5074A76
:1025B800136843F0100313600320FFF7A1FD002008
:1025C800FFF7DEFFFFF7DAFF002008BD002002401A
:1025D800024A136801331360704700BFAC00002043
:1025E800014B1868704700BFAC00002030B583B0BD
:1025F8000190FFF7F5FF0546019CB4F1FF3F00D0BD
:102608000134FFF7EDFF401BA042FAD303B030BD01
:102618007047000030B482B00022019290F8242064
:10262800012A00F091800346012280F824204A689C
:10263800062A2DD80468606B02EB8202053A4FF037
:102648001F0C0CFA02FC20EA0C000D6805FA02F2D5
:10265800024362630A68092A3AD91C68E06802EBF7
:1026680042021E3A4FF0070C0CFA02FC20EA0C005A
:102678008D6805FA02F20243E2600A68103A012AFC
:1026880036D90020002283F8242002B030BC7047DD
:102698000C2A0ED80568286B02EB8202233A1F2405
:1026A800944020EA04000C6804FA02F202432A6308
:1026B800D0E70568E86A02EB8202413A1F24944099
:1026C80020EA04000C6804FA02F20243EA62C1E755
:1026D8001C68206902EB42024FF0070C0CFA02FC5E
:1026E80020EA0C008D6805FA02F202432261C4E771
:1026F8001A681648824205D09A6A42F020029A6205
:102708000120BFE7906810F4000F1BD1906840F4D7
:10271800000090600A68102A01D00020B2E70C4A35
:1027280012680C49A1FB0212920C02EB82025200C1
:10273800019202E0019A013A0192019A002AF9D124
:1027480000209FE700209DE702209EE7002401402B
:102758000000002083DE1B4330B583B000230193C3
:1027680003689A6812F0010F2ED104469A6842F065
:1027780001029A60164B1B68164AA2FB03239B0CA6
:10278800019302E0019B013B0193019B002BF9D1CE
:10279800FFF726FF054623689B6813F0010F11D148
:1027A800FFF71EFF431B022BF5D9A36A43F0100362
:1027B800A362E36A43F00103E362002384F8243050
:1027C800012002E0002000E0002003B030BD00BF7F
:1027D8000000002083DE1B4390F82430012B68D0D2
:1027E80010B50446012380F82430FFF7B5FF002810
:1027F8005BD1A36A23F4407323F0010343F480738D
:10280800A36223682C4A934227D0A26A22F480123A
:10281800A2625A6812F4806F05D0A26A22F440526C
:1028280042F48052A262A26A12F4805F2BD0E26A5C
:1028380022F00602E262002284F824206FF00202ED
:102848001A6023689A6802F46022B2F5602F1DD0DE
:102858009A6842F480129A602AE0A2F5806252686F
:1028680012F4702FD1D0A26A42F48012A262134AE5
:10287800526812F4806FD6D0A26A22F4405242F411
:102888008052A262CFE70022E262D4E70A4A93426A
:1028980004D09A6842F4A0029A6009E0A2F5806226
:1028A800526812F4702FD3D1F3E7002384F8243050
:1028B80010BD0220704700BF0028014000240140DD
:1028C80038B503689A6812F0010F01D1002038BDAD
:1028D80004469A6822F001029A60FFF781FE0546D5
:1028E80023689B6813F0010F0ED0FFF779FE431B96
:1028F800022BF5D9A36A43F01003A362E36A43F0FD
:102908000103E3620120E2E70020E0E7002800F08D
:102918008680F8B50446836A002B50D02046FFF71E
:10292800CFFFA36A13F0100373D1002871D1A26AF4
:1029380022F4885222F0020242F00202A262626885
:10294800266838498E4240D0E1690A43E16842EA84
:102958004102A568B5F5807F02D0012D3CD01D4607
:102968006769012F3BD0716821F46941294371607F
:102978002568AE682C4931401143A960A168B1F5BA
:10298800807F01D0012902D12369013B1B052568FD
:10299800E96A21F470010B43EB6223689968234BC1
:1029A8000B409A422CD0A36A23F0120343F0100381
:1029B800A362E36A43F00103E36201202EE0C362ED
:1029C80080F82430FFF724FEA8E7E169B1F5402F2D
:1029D800BBD14FF40021B8E74FF48075C0E731B997
:1029E800A169013945EA413141F40065BBE7A16AB3
:1029F80041F02001A162E16A41F00101E162B2E720
:102A08000023E362A36A23F0030343F00103A362F4
:102A180004E0A36A43F01003A3620120F8BD01207B
:102A2800704700BF003C0140FDF7E1FFFE0E1FFFAD
:102A38000268D36823F0C003D360202380F83930BC
:102A480070470268D36823F49073D36002685369AF
:102A580023F001035361202380F83A3070470000C7
:102A68002DE9F04104460268136923F44053C16814
:102A78000B43136183680269134342691343016876
:102A8800CA6822F4B05222F00C021343CB600268E9
:102A9800536923F4407381690B4353610268574BB0
:102AA8009A4255D0FEF78EFE00EB800000EB8000C6
:102AB8006568AD00B0FBF5F5514FA7FB05356D090D
:102AC8002E01FEF77FFE00EB800000EB80006568BA
:102AD800AD00B0FBF5F5FEF775FE00EB800000EBEE
:102AE800800063689B00B0FBF3F3A7FB03235B093B
:102AF8004FF0640808FB13531B013233A7FB032371
:102B08005B0903F0F003F518FEF75CFE00EB8000AC
:102B180000EB80006668B600B0FBF6F6FEF752FEE2
:102B280000EB800000EB800063689B00B0FBF3F0D3
:102B3800A7FB0030400908FB106000013230A7FBFA
:102B48000037C7F3431723682F449F60BDE8F0811F
:102B5800FEF748FE00EB800000EB80006568AD00E2
:102B6800B0FBF5F5264FA7FB05356D092E01FEF7DD
:102B780039FE00EB800000EB80006568AD00B0FB1B
:102B8800F5F5FEF72FFE00EB800000EB8000636890
:102B98009B00B0FBF3F3A7FB03235B094FF064082A
:102BA80008FB13531B013233A7FB03235B0903F014
:102BB800F003F518FEF716FE00EB800000EB80002E
:102BC8006668B600B0FBF6F6FEF70CFE00EB800078
:102BD80000EB800063689B00B0FBF3F0A7FB0030BC
:102BE800400908FB106000013230A7FB0037C7F32B
:102BF800431723682F449F60A8E700BF00380140AF
:102C08001F85EB51704758B310B5044690F839301A
:102C18000BB3242384F839302268D36823F4005393
:102C2800D3602046FFF71CFF2268136923F4904302
:102C380013612268536923F02A0353612268D36819
:102C480043F40053D3600020E063202384F8393034
:102C580084F83A3010BD80F83830FFF7D3FFD8E752
:102C68000120704738B590F83930DBB2202B31D1CC
:102C78000446002930D0002A30D090F83830012B93
:102C88002ED0012380F8383001628284C284002566
:102C9800C563212380F83930036B12489862236B8F
:102CA8001148D862236B11481863236B5D63206851
:102CB8001346021D206B00F047F923686FF04002AD
:102CC8001A6084F838502268536943F080035361CE
:102CD800284600E0022038BD0120FCE70120FAE781
:102CE8000220F8E7A32D0008D52D00082D2E000896
:102CF80030B583B0044690F83A00C0B220283CD1E1
:102D080000293DD0002A3DD094F83830012B3BD023
:102D1800012384F83830A162A2850025E5632223C7
:102D280084F83A30636B19489862636B1848D86224
:102D3800636B18481863636B5D63206813460A4623
:102D4800011D606B00F000F9019523681A68019273
:102D58005A680192019A84F83850DA6842F480720D
:102D6800DA602268536943F00103536122685369AA
:102D780043F040035361284600E0022003B030BD11
:102D88000120FBE70120F9E70220F7E7E12D000821
:102D9800212E00082D2E0008704708B50346406A0A
:102DA8001B681B6813F0200F0CD10023C384026832
:102DB800536923F0800353610268D36843F04003EA
:102DC800D36008BDFFF7E8FFFBE7704708B5406A26
:102DD800FFF7FBFF08BD704708B50346406A1B684C
:102DE8001B6813F0200F13D10023C3850268D36832
:102DF80023F48073D3600268536923F0010353619D
:102E08000268536923F040035361202380F83A3065
:102E1800FFF7E1FF08BD704708B5406AFFF7FBFF01
:102E280008BD704710B5446A23685A6994F8393068
:102E3800DBB2212B10D023685A6902F0400294F8C3
:102E48003A30DBB2222B11D0E36B43F01003E3637B
:102E58002046FFF7E6FF10BD02F08002002AEAD004
:102E68000023E3842046FFF7E3FDE4E7002AEBD0E4
:102E78000023E3852046FFF7E4FDE5E730B40124AD
:102E8800056CAC40C56B6C60046863604368102BCC
:102E980005D0036899600368DA6030BC704703683E
:102EA8009A600368D960F8E700283ED010B403465A
:102EB80000681F4A90422DD81E4A02441E49A1FBB1
:102EC8000212120992001A641C4ADA63022283F879
:102ED8002120016821F47F5121F030015A689C6853
:102EE8002243DC6822431C6922435C6922439C69B3
:102EF8002243DC6922430A43026000209862D862B8
:102F0800186358639863012283F8212083F820000E
:102F180010BC70470A4A02440749A1FB0212120971
:102F280092001A64074ADA63D0E70120704700BFAD
:102F380007040240F8FFFDBFCDCCCCCC0000024016
:102F4800F8FBFDBF0004024038B5044690F82000A5
:102F5800012831D0012084F8200094F821000128AC
:102F680004D0002384F82030022038BD022084F8E1
:102F780021000020A0632568286820F0010028604F
:102F88002046FFF77BFFE36A5BB12268136843F0D2
:102F98000E0313602268136843F0010313600020D6
:102FA800E3E72268136823F00403136022681368B8
:102FB80043F00A031360EDE70220D6E738B5C36B88
:102FC8001A6804682568016C04238B40134200F0DA
:102FD8009B8015F0040F00F09780236813F0200FF2
:102FE80003D1236823F00403236003689A4A9342B9
:102FF80046D9783A934224D01432934228D01432D6
:10300800934227D01432934227D01432934227D0C8
:103018001432934227D01432934227D002F56272B9
:10302800934226D01432934225D01432934224D0AE
:103038001432934202D04FF4802203E04FF48042CE
:1030480000E00422854B5A60C36A03B1984738BD33
:103058004022F7E74FF48062F4E74FF48042F1E74B
:103068004FF48022EEE74FF48002EBE74FF08062E6
:10307800E8E70422E6E74022E4E74FF48062E1E76C
:10308800774A934224D01432934225D01432934283
:1030980024D01432934224D01432934224D01432D0
:1030A800934224D01432934224D002F562729342A0
:1030B80023D01432934222D01432934221D01432B6
:1030C800934202D04FF4802203E04FF4804200E0A4
:1030D8000422644B5A60B7E74022FAE74FF4806253
:1030E800F7E74FF48042F4E74FF48022F1E74FF41A
:1030F8008002EEE74FF08062EBE70422E9E7402226
:10310800E7E74FF48062E4E702238B40134200F0C4
:10311800AB8015F0020F00F0A780236813F0200F92
:1031280006D1236823F00A032360012380F82130A5
:103138000368494A93424BD9783A934224D01432CF
:1031480093422DD0143293422CD0143293422CD077
:10315800143293422CD0143293422CD0143293421E
:103168002CD002F5627293422BD0143293422AD0AB
:103178001432934229D01432934202D04FF40032D1
:1031880003E04FF4005200E00222344B5A6000235F
:1031980080F82030836A002B3FF459AF984756E7F0
:1031A8002022F2E74FF40072EFE74FF40052ECE709
:1031B8004FF40032E9E74FF40012E6E74FF00072EF
:1031C800E3E70222E1E72022DFE74FF40072DCE7C1
:1031D800234A934224D01432934225D01432934286
:1031E80024D01432934224D01432934224D014327F
:1031F800934224D01432934224D002F5627293424F
:1032080023D01432934222D01432934221D0143264
:10321800934202D04FF4003203E04FF4005200E032
:103228000222104B5A60B2E72022FAE74FF40072EC
:10323800F7E74FF40052F4E74FF40032F1E74FF4A8
:103248000012EEE74FF00072EBE70222E9E72022D6
:10325800E7E74FF40072E4E7800002400004024010
:103268000800024000000240082303FA01F111425D
:103278003FF4EDAE15F0080F3FF4E9AE236823F0F4
:103288000E032360026CC16B012303FA02F24A6049
:10329800836380F82130002380F82030036B002BF3
:1032A8003FF4D5AE9847D2E60F4B1A6842F00102B8
:1032B8001A6059680D4A0A405A601A6822F08472E6
:1032C80022F480321A601A6822F480221A605A683E
:1032D80022F4FE025A604FF41F029A60044B4FF02A
:1032E80000629A60704700BF001002400000FFF8BB
:1032F80000ED00E0F0B589B0032205210D20FEF7AE
:1033080011FF0D20FEF746FF022205210C20FEF7D3
:1033180009FF0C20FEF73EFF384B5A6942F00102C4
:103328005A615A6902F001020192019A9A6942F0BF
:1033380008029A619A6902F008020292029ADA690E
:1033480042F48022DA61DB6903F480230393039B50
:103358002B4D2C4E2E604FF496436B600024AC60CE
:10336800EC602C61AC61EC610C236B612846FFF7C3
:103378004AFC736943F080037361012306934FF499
:1033880080630493022305930323079306F54446B9
:1033980004A93046FEF734FF4FF400630493059404
:1033A80004A93046FEF72CFF174E184B33607460A3
:1033B800B4608027F760346174612023B361F461DD
:1033C8003046FFF771FD6E637562114E114B336025
:1033D80010237360B460F76034617461B461F461A0
:1033E8003046FFF761FD2E6375620B4B0B4A5A623C
:1033F8001C6270225A6009B0F0BD00BF0010024084
:10340800AC020020004800402401002030000240A7
:10341800680100201C0002400000024004480040EF
:103428002DE9F04F89B0884B9A6942F004029A61FD
:103438009A6902F004020192019A9A6942F008021C
:103448009A619A6902F008020292029A9A6942F015
:1034580010029A619B6903F010030393039B4FF0DA
:103468000009CDF81490CDF81890022707974FF06F
:10347800200ACDF810A0754B0593754E04A9304667
:10348800FEF7BEFE4023049304A93046FEF7B8FEBB
:103498004FF0800BCDF810B004A93046FEF7B0FE0F
:1034A8004FF4806204926B4C04A92046FEF7A8FEF4
:1034B8004FF40063049304A92046FEF7A1FE4FF4DD
:1034C8008055049504A92046FEF79AFECDF814907D
:1034D80004954FF00108CDF8188005F1804505F5F1
:1034E800784504A92846FEF78BFECDF81890049776
:1034F80004A92846FEF784FECDF814804FF004098D
:10350800CDF8109004A93046FEF77AFE10210491F8
:103518000DEB010001462846FEF772FECDF810A01B
:1035280004A801462846FEF76BFE03230593CDF851
:10353800108004A801462046FEF762FECDF81080F0
:1035480004A801462846FEF75BFE082004900DF10A
:10355800100C61462046FEF753FE04970DF1100C3F
:1035680061462046FEF74CFE10210491694420462E
:10357800FEF746FECDF810A004A92046FEF740FE4F
:10358800CDF8109004A92046FEF73AFE08200490D2
:1035980004A92846FEF734FECDF8109004A9284661
:1035A800FEF72EFE05974023049304A92046FEF754
:1035B80027FECDF810B004A92046FEF721FE4FF4EF
:1035C8008079CDF8109004A92046FEF719FECDF8B1
:1035D80010B004A92846FEF713FECDF8108004A900
:1035E8003046FEF70DFE049704A93046FEF708FEA4
:1035F800CDF8109004A92846FEF702FE4FF4007398
:10360800049304A92846FEF7FBFD4FF48062049258
:1036180004A92846FEF7F4FD4FF40053049304A9C7
:103628003046FEF7EDFD4FF48043049304A930467D
:10363800FEF7E6FD4FF40043049304A93046FEF775
:10364800DFFD09B0BDE8F08F001002400000311026
:10365800000C0140001001402DE9F04F99B0784B63
:103668009A6942F400629A619A6902F400620192CE
:10367800019A9A6942F400529A619B6903F40053D3
:103688000293029B6F4EDFF8C091C6F800900024A9
:1036980074604FF02008C6F808804FF4FA6BC6F83B
:1036A8000CB034617461B4613046FEF799FB1023A5
:1036B8001693179416A93046FEF7C7FC60230F939C
:1036C8001094119408271297139414944FF40072CD
:1036D800159222460FA93046FEF7D4FB04220FA903
:1036E8003046FEF7CFFB3A460FA93046FEF7CAFB35
:1036F8004FF4006108914FF4806009900A94CDF866
:103708002C800C940D940E940DEB08052946304638
:10371800FEF76FFC4D4DDFF838A1C5F800A06C60CE
:10372800C5F80880C5F80CB02C616C61AC612846FE
:10373800FEF756FBCDF85880802317930DF1580CEF
:1037480061462846FEF781FC04940523039303A9E8
:103758002846FEF7FEF960230F93109411941297F0
:10376800139414944FF40072159222460FAB194625
:103778002846FEF787FB04220FAB19462846FEF7BA
:1037880081FB3A460FAB19462846FEF77BFB4FF400
:10379800006108914FF4806009900A94CDF82C805C
:1037A8000C940D940E940DEB08012846FEF721FCAD
:1037B800DAF8443023F40043CAF84430D9F84430E6
:1037C80023F40043C9F8443021462846FEF7D6FBC7
:1037D80004212846FEF7D2FB39462846FEF7CEFBE1
:1037E80021462846FEF7F3FB04212846FEF7EFFBA7
:1037F80039462846FEF7EBFB21463046FEF7BEFB6E
:1038080004213046FEF7BAFB39463046FEF7B6FBD0
:1038180021463046FEF7DBFB04213046FEF7D7FB96
:1038280039463046FEF7D3FB2B6801221A6332680B
:10383800136843F00103136019B0BDE8F08F00BFAF
:10384800001002402C020020002C0140EC01002056
:10385800003401402DE9F04186B0414EB36943F48C
:103868000073B361B36903F400730093009B3D4C8C
:103878003D4B23604FF48073A3600025E5606561CC
:103888004FF44023E36165604FF00508C4F81080E9
:103898002046FFF73BF8354A536843F480235360CA
:1038A8004FF4C023059305A92046FEF7F9FB012331
:1038B80004930E220292039302A92046FEF7AAFE61
:1038C80002950227039702A92046FEF7A3FE049754
:1038D8000B2702970323039302A92046FEF79AFEBB
:1038E8000C2302930423039302A92046FEF792FEB9
:1038F8000723049310230293CDF80C8002A92046D5
:10390800FEF788FE2268936843F4000343F480734B
:103918009360936843F001039360736943F0010374
:103928007361736903F001030193019B104B9D6060
:10393800C3F80C800F4A1A610F4A5A6140F6A22256
:103948009A609A6842F001029A602A4629463846E7
:10395800FEF7E8FB3846FEF71DFC06B0BDE8F0812F
:1039680000100240C4000020002401400000014073
:10397800000002404C240140B0000020F0B585B0A2
:10398800284B9A6942F480629A619B6903F48063C8
:103998000093009B244C254B23604FF48073A36055
:1039A8000023E36063614FF46022E26163600526EF
:1039B80026612046FEF7AAFF012303930F220192F6
:1039C800029301A92046FEF725FE0D230193022547
:1039D800029501A92046FEF71DFE03950A230193CF
:1039E8000327029701A92046FEF714FE0195042338
:1039F80002930DEB03012046FEF70CFE0723039309
:103A08000197029601A92046FEF704FE23689A68EA
:103A180042F480729A609A6842F001029A6005B096
:103A2800F0BD00BF00100240F40000200028014053
:103A3800FEE7000000B589B0002211461D20FEF700
:103A480071FB1D20FEF7A6FB1E4BDA6942F002024D
:103A5800DA61DB6903F002030193019B1A481B4BEF
:103A680003604FF6FF134360002383606422C26043
:103A780003618361FEF79AF9A8B94FF48053049360
:103A880004A91148FDF7E0FF90B9002302930393BE
:103A980002A90D48FEF7D9FA78B90B48FDF7C7FF18
:103AA80009B05DF804FB4FF441710948FFF7C0FF06
:103AB80040F20A310648FFF7BBFF40F211310448D3
:103AC800FFF7B6FF00100240AC01002000040040E0
:103AD80030590008002303E0064A82EA5000013307
:103AE800072B04DC10F0010FF6D00022F5E780F078
:103AF8007F4070472083B8EDF8B507460E46154657
:103B08000E4B1C6844B1002314E02046FFF7E2FF87
:103B18000A4B43F824000134FF2CF6D9F3E729684F
:103B2800CAB2F85C4240054850F8224084EA1124A1
:103B38002C600133B342F2D3F8BD00BF2403002048
:103B480038B5144B00221A70134B1B681333262BFD
:103B58001AD81546114B1A700AE0114B1B6800223F
:103B68005A620120FEF742FD0134312CF5DD0135A2
:103B7800072D03DC0B4B1D700024F6E700222021E3
:103B88000948FEF764FCFEE7084B4FF47A721A60A6
:103B980038BD00BF3C0700201C0300202807002078
:103BA800AC01002024070020000801401803002071
:103BB80070B586B0064602AB0068716803C304900E
:103BC800B288B379ADF814208DF816300024072C8C
:103BD80035D802AB1D190023019301AA04212846F8
:103BE800FFF78AFF6A68019B9A4202D00134E4B267
:103BF800EDE72A686B68326073600121002000F0ED
:103C08005BFFB5F90030002BB8BF5B429BB2B3F540
:103C18007A7F08D8B5F90230002BB8BF5B429BB257
:103C2800B3F57A7F05D9FF21012000F045FF002078
:103C38000FE02146012000F03FFF012009E00021AC
:103C4800084600F039FF716809B2012000F034FF1E
:103C5800002006B070BD000030B597B002250C9565
:103C680001231093102311931395002414944FF4F7
:103C7800601315930CA8FDF7B9FA0F23079308955D
:103C880009944FF480630A930B94294607A8FDF71B
:103C9800D5FC01954FF44043039301A8FEF7E2FBDE
:103CA800FDF78AFD084BA3FB00308009FEF77EFA7A
:103CB8000420FEF78FFA224621464FF0FF30FEF728
:103CC80031FA17B030BD00BFD34D621000000000BC
:103CD8002DE9F04F8BB0FEF769FC764CA36943F0F1
:103CE8000103A361A36903F001030193019B03206E
:103CF800FEF706FA002211466FF00B00FEF712FAE3
:103D0800002211466FF00A00FEF70CFA0022114655
:103D18006FF00900FEF706FA002211466FF0040062
:103D2800FEF700FA002211466FF00300FEF7FAF9D9
:103D3800002211466FF00100FEF7F4F90022114647
:103D48004FF0FF30FEF7EEF9FFF786FF636923F0C7
:103D580001036361FFF764FBFFF77EFCFFF77AFD61
:103D6800FFF70CFE012220215348FEF770FB534851
:103D7800FEF732FD5248FEF72FFD082405E0514BAF
:103D88001C706420FEF732FC013C002CF7DA002599
:103D98004C4B1D70012204214B48FEF758FB00F0E4
:103DA800A7FEFFF7A7FA082248494948FEF7A0FFEF
:103DB800484B188A80B2FCF7BFFF80460124464B67
:103DC8001C70FFF737FE454B1C702C46A94614E1C2
:103DD8000023434A1360434A136022E1424F786943
:103DE800FCF7AEFFFDF7C6F9FCF7AAFF3F49FCF761
:103DF800FBFF3F4DFDF7BEF92880786BFCF7A0FF6D
:103E0800FDF7B8F9FCF79CFF3849FCF7EDFFFDF723
:103E1800B1F96880FB69AB80FB6BEB802046FDF74E
:103E2800A9F928813349344B1868FCF7DDFFFDF701
:103E3800A1F968812F49314B1868FCF7D5FFFDF7C8
:103E480099F9A8812B492E4B1868FCF7CDFFFDF78F
:103E580091F9E88100242A4642F8104F102128469B
:103E6800FFF74AFE274BDA6922F00102DA611422D1
:103E78001A629D62DA6942F00102DA6162E1164B68
:103E880000221A700AE0204B1B6800225A626F1C3D
:103E980005EBD5756810FEF7A9FB3D4602210648DB
:103EA800FEF7CEFA0028EED1FFF74AFE57E1FFF7FA
:103EB80047FE33E00010024000080140C400002023
:103EC800F400002024070020000C0140F802002024
:103ED800AC020020B00000203C070020EC020020CB
:103EE800F0020020F40200206C070020EC51B83EDC
:103EF800040300200000C842080000203407002006
:103F08003807002000000240AC010020AE4B1B889F
:103F1800002B00F04681013BAB4A138086EAE6732A
:103F2800A3EBE673322B06DC8AEAEA73A3EBEA73A7
:103F3800322B40F33C81A54B00221A60A34B1B682F
:103F4800A34A93420CD9A34A12784AB9A14A032139
:103F58001170A14A012111709B4A4FF47A711180A6
:103F68009E4A93420CD99B4A12784AB9994A02212F
:103F78001170994A01211170934A4FF47A71118096
:103F8800974A934200F25A81964B1B68002B2EDD0C
:103F9800013B944A1360944981FB0321DA17C2EB71
:103FA800E1124FF4C87101FB1232002A00F04C8173
:103FB8008C4B1B68B3F5FA6F09DC864A0321117034
:103FC800854A01211170804A4FF47A711180B3F546
:103FD8007A7F09DC7F4A022111707F4A0121117022
:103FE800794A4FF47A711180002B40F33B817F4B63
:103FF8001B6800225A62D14635460134A4B2052016
:10400800FEF7F4FA7A48FFF7D3FD00283FF4E0AE54
:10401800774A13881BB277490B6053881BB2764ADC
:104028001360764B00221A60DFF8D4B1DBF8000089
:10403800FCF750FA60A3D3E90023FCF7B5FA06466B
:104048000F466C4B1868FCF745FA5DA3D3E90023CB
:10405800FCF7AAFA02460B4630463946FCF7EEF85A
:10406800FCF73CFD8246CBF80000DFF898B1DBF89E
:104078000000FCF72FFA50A3D3E90023FCF794FAC9
:1040880006460F465C4B1868FCF724FA4CA3D3E9A4
:104098000023FCF789FA02460B4630463946FCF7FE
:1040A800CDF8FCF71BFD0646CBF8000005F13103FF
:1040B800984214DC313DA84211DB09F131039A45DD
:1040C8000DDCA9F13109CA4509DB4C4B1B68042BEF
:1040D80005D84D4BC3F800A043424C4A136004EB8B
:1040E8008403C82B2EDD4046FCF706FA32A3D3E939
:1040F8000023FCF759FA04460D46454B188A80B24E
:10410800FCF71AFEFCF7F8F92DA3D3E90023FCF716
:104118004BFA02460B4620462946FCF78FF8FCF777
:1041280005FD80463B49FCF755FD3B49FCF75CFE25
:104138003A49FCF751FD0446394B1B6A002B3FF402
:104148004DAE002402213748FEF77AF938B1364BD4
:104158001B6823B9354B1D68002D3FF490AE344BD6
:104168001D6834492846FCF7DDFF28B1254B1B683C
:104178001333262B7FF69BAE2F492846FCF7D2FF38
:1041880000283FF4C3AE2B492846FCF7E9FF002876
:104198003FF4BCAE0F4B05221A700F4B06221A7063
:1041A800BCE600230B4A13700B4A1370B6E6074AA5
:1041B800136801331360C1E6AE47E17A14AEEF3FEE
:1041C8007B14AE47E17A843FEE0200200003002012
:1041D8006A0401002407002028070020751E01003A
:1041E80080380100180300201F85EB51AC01002026
:1041F800F8020020F0020020F40200200400002051
:10420800200300201C030020500700204C0700203A
:10421800B000002000E0CE44083748BE33330F42D8
:104228000000024000080140580700205407002001
:10423800080000200000E8410000F8410C4B002273
:104248001A60FFF77DFC9FE60A4A82FB0312DB1720
:10425800C3EBA212084902A800F0BCFE02A800F0B5
:1042680031FCA5E6054B00221A60FFF769FCBEE6A3
:10427800000300201F85EB513C590008180300205B
:1042880008B52AE0194B00225A639A63DA63596C1D
:1042980021F400415964A3F500635A639A63DA6311
:1042A800596C21F400415964114B1A60114B1A6082
:1042B800114B1A70114B06211960114B1A60114BE2
:1042C8001A60114B1A60114B1A60114B1A60114B8E
:1042D8001A6020211048FEF7BAF8104B1B78002B03
:1042E800D0D10E4B01221A7008BD00BF0034014026
:1042F800200300201C0300203C07002004000020AD
:104308004C070020500700205407002058070020C1
:10431800F0020020F402002000080140EC02002016
:104328008D4B02225A608D4B1B68B3F57A7FC0F221
:1043380084802DE9F0418A4B1A688A4BA3FB02134B
:104348009B094FF47A7101FB132313BB864E306827
:10435800FCF7D2F87AA3D3E90023FCF725F9044641
:104368000D46824B988980B2FCF7E6FC8049FCF741
:104378003BFDFCF7C1F874A3D3E90023FCF714F95B
:1043880002460B4620462946FBF758FFFCF7CEFBB2
:104398003060764C608980B2764B1E68801BFCF7D3
:1043A800CFFCFCF7A9F86AA3D3E90023FCF7FCF8D3
:1043B800FCF7BCFB704B1860208980B26F4B1D68FE
:1043C800401BFCF7BDFCFCF797F861A3D3E9002379
:1043D800FCF7EAF8FCF7AAFB694B1860608980B221
:1043E800801BFCF777F85AA3D3E90023FCF7DCF825
:1043F80000220023FCF74AFB002859D15B4B58895F
:1044080080B2801BFCF766F851A3D3E90023FCF7C0
:10441800CBF800225B4BFCF757FB002858D15A4BCE
:104428001B68052B54D8594B1B78002B50D0584A81
:10443800536C43F4004353644FE00133474A13601D
:104448004A4A93889BB253490868034403EBD373E1
:104458005B100B60D3889BB24F490868034403EB99
:10446800D3735B100B6013889BB24C4908680344F4
:1044780003EBD3735B100B6053889BB24849086801
:10448800034403EBD3735B100B6053899BB2394928
:104498000868034403EBD3735B100B6013899BB26A
:1044A800364A11680B4403EBD3735B1013607047F3
:1044B800608980B2801BFCF70DF825A3D3E900239F
:1044C800FCF772F80022374BFCF7E0FA0028A6D078
:1044D8002F4A536C23F400435364244B188980B249
:1044E800401BFBF7F7FF1AA3D3E90023FCF75CF89E
:1044F80000220023FCF7CAFA002857D11B4B188961
:1045080080B2401BFBF7E6FF11A3D3E90023FCF7B9
:104518004BF800221B4BFCF7D7FA002857D11A4B4F
:104528001B68052B53D8194B1B78002B4FD01E4AFC
:10453800536C43F4004353644EE000BFAFF3008074
:10454800AE47E17A14AEEF3F7B14AE47E17A843F81
:104558007B14AE47E17A943F0000024040070020F8
:104568002C070020D34D621008000020B000002066
:1045780017B9CE3C0C0000203407002010000020A2
:104588003807002000002E40040000203C070020CF
:104598000034014014000020180000201C000020F6
:1045A8002000002000002EC0002C0140924B1889EA
:1045B80080B2401BFBF78EFF8DA3D3E90023FBF7E6
:1045C800F3FF00228D4BFCF761FA0028A7D08C4A34
:1045D800536C23F4004353648A498B6813F0200F0B
:1045E8000CBF012300238A6812F0400F0CBF012280
:1045F8000022896811F0800F0CBF0125002582492F
:10460800886810F4806F0CBF012000208C6814F4B7
:10461800006F0CBF01240024896811F4805F0CBF6F
:104628004FF0010C4FF0000C02EB450203EB420384
:10463800764EF35C76490B600B6802330B600D68AD
:10464800744B83FB0572A2EBE57202EB4202A5EB09
:1046580042020A6004EB4C0200EB4202B05C6E4A74
:104668001060106802301060106883FB0043A3EBF1
:10467800E07303EB4303A0EB4303136009685E4850
:1046880083889BB2654A12689A1AC3889BB26448A9
:1046980000681B1A052934D8DFE801F0032326290E
:1046A8002C2FD31A5F4A13605F4B1A6801321A60C5
:1046B8005E4B186848B35E4BA3FB02131B0B5D49A6
:1046C80009680131B3FBF1F401FB1433EBB9B2FB18
:1046D800F0F300FB1322EAB910215748FDF7BDFE9D
:1046E80018E0504B1A60DFE74E4B1A60DCE74D4A82
:1046F8001360D9E74B4A1360D6E79B1A494A1360FF
:10470800D2E7484B00221A60CEE7002210214A481F
:10471800FDF79DFE494B18683D4B1B68052B28D8B3
:10472800DFE803F00312171B1F23C0F1000C044637
:104738001846434B1968384B1B68052B52D8DFE8DD
:1047480003F01D3B3F44494D044640424FF0000CE6
:10475800EFE7844640420024EBE7444284460020C9
:10476800E7E744424FF0000CE3E7C0F1000C0024F7
:10477800DFE74FF0000C64466046DAE74D428E46AC
:1047880019462E4B1B68002B40F39A802D4B1E6850
:104798001F4B1B6805331F4A82FB0372A2EBE372AF
:1047A80002EB4202A3EB4202052A00F28480DFE812
:1047B80002F04B6D72767A7E8E4649420025E0E71C
:1047C8000D4649424FF0000EDBE7C1F1000E0D46E1
:1047D8000021D6E7C1F1000E0025D2E74D424FF087
:1047E800000ECEE70025AE462946CAE7AFF30080A3
:1047F8007B14AE47E17A943FB000002000002EC041
:10480800002C0140000C01400010014050590008E4
:1048180044070020ABAAAA2A480700201400002059
:1048280018000020300700202C0700202407002053
:104838005917B7D128070020000801404C0700206D
:104848005007002054070020C6F1000837461646D6
:1048580030443C44C444904B1B68002B40F3D88040
:104868008E4B1B688E4A166805368E4A82FB067286
:10487800A2EBE67202EB4202A6EB4202052A00F224
:10488800C280DFE802F04FABB0B4B8BC374676421E
:104898004FF00008DCE7B04676420027D8E77742B9
:1048A800B0460026D4E777424FF00008D0E7C6F1BB
:1048B80000080027CCE74FF0000847464646C7E700
:1048C800794B1E687742794B1A680132754B83FB26
:1048D8000283A3EBE27303EB4303A2EB4303052B31
:1048E80018D8DFE803F0031C06090D13B0461E466E
:1048F800AEE7B8460027ABE7B84637460026A7E735
:1049080033463E461F464FF00008A1E7B0463E46F4
:1049180000279DE74FF000084746464698E74FF0C6
:10492800000895E7C3F100081F46134619440EEB2B
:10493800070205EB080340F2DE35A84200F39A802F
:10494800A5F2BC75A842B8BF284600F57A75584844
:10495800456340F2DE30844200F38F80A0F2BC70E1
:104968008442B8BF044604F57A745148846340F21F
:10497800DE30844500F38480A0F2BC706045B8BF87
:10498800604600F57A704A4CE06340F2DE308142BE
:1049980079DCA0F2BC708142B8BF014601F57A719A
:1049A8004448416340F2DE318A426FDCA1F2BC71B7
:1049B8008A42B8BF0A4602F57A723E498A6340F2D3
:1049C800DE32934265DCA2F2BC729342B8BF134652
:1049D80003F57A73374AD363BDE8F0811F465B421B
:1049E8004FF00008A2E798465B4200279EE75F4227
:1049F800984600239AE75F424FF0000896E7C3F114
:104A08000008002792E74FF00008474643468DE725
:104A1800224B1B685F42224A12680132214E86FBF4
:104A28000286A6EBE27606EB4606A2EB4606052EC4
:104A380018D8DFE806F0031C06090D13984633461C
:104A480074E7B846002771E7B8461F4600236DE7AC
:104A58001A463B4617464FF0000867E798463B461C
:104A6800002763E74FF00008474643465EE74FF0EC
:104A780000085BE740F2C67569E740F2C67474E760
:104A880040F2C6707FE740F2C67189E740F2C6720D
:104A980093E740F2C6739DE75007002058070020AF
:104AA80048070020ABAAAA2A540700204407002080
:104AB80000340140002C0140014B23F810107047CE
:104AC8005C07002010B50446FBF7AAFB82B221461A
:104AD8000548FEF7C7F82046FBF7A2FB82B221463D
:104AE8000248FEF7BFF810BDAC0200206C0200209F
:104AF80070B582B0304C40220021204600F062FAA6
:104B08002E4D60220021284600F05CFA4FF0FF335A
:104B1800AB620126AE652A4B1868FBF7EDFC24A3AF
:104B2800D3E90023FBF740FD0022264BFBF766FE86
:104B3800FBF7FCFFA060A062234BDA6942F0040295
:104B4800DA61DB6903F004030193019B1F4C204BDE
:104B580023604FF4A07363600025A5604FF6FF73D0
:104B6800E36025616561A5612046FDF71FF92046D0
:104B7800FCF750FF2268D3683343D3602A46314696
:104B88001E20FDF7CFFA1E20FDF704FB2A4603215D
:104B98001720FDF7C7FA1720FDF7FCFA2A4603216C
:104BA8002820FDF7BFFA2820FDF7F4FA02B070BDFF
:104BB800EA2E4454FB2109406C070020F00700202E
:104BC800240000200080564000100240AC0700205E
:104BD800000800402DE9F04F83B072B65B4B1B68AC
:104BE800D3F824B05A4BD3E900675A4B9B6803F0BB
:104BF800E003DB43C3F34213574AD370574B9B6818
:104C080003F4E053DB43C3F3822382F8333062B604
:104C1800002412E0524B03EB4413DA690132DA61E3
:104C280004EB44034C4A02EB0313DA78D2B21A714C
:104C3800D3E90201C3E904010134012C00F38380A4
:104C480004EB4403444A02EB03131A79D2B2DB782B
:104C5800DBB29A42F0D004EB44033F4A02EB031361
:104C68001B79002BDCD004EB440502EB051505236A
:104C78006B623B044BEA064843EA1649C5E90289D8
:104C8800D5E90201D5E90423831A01932B79EA783F
:104C9800C3EBC3031344334A52F82330AA6A02FB16
:104CA80003F32B622E4A630102EB441AD158286A97
:104CB8000144D150D058FCF743F8FCF75BFADAF816
:104CC80008200092FCF73CF80099FCF78DF8FCF7F7
:104CD80051FACAF80C00019BCAF818302B6A002B4D
:104CE80098D05546DAF81800FCF726F8FBF704FCCC
:104CF80002460B4600201C49FBF780FDFBF7EEFE41
:104D080004EB440A144B03EB0A1ADAF8203003FBCD
:104D180000F06860AB680093A869FCF70DF80146DD
:104D28000098FCF715F90090DAF82000FCF708F86D
:104D380001460098FCF758F80C49FCF755F8FCF7C1
:104D480019FA68616CE703B0BDE8F08FAC07002082
:104D580050080020000C0140F0070020001001401E
:104D68006C0700205859000800400F410050C34705
:104D7800184B1B681A6912F0010F2AD010B46FF093
:104D880001021A61144CD4E90023501C43F10001BC
:104D9800C4E90001002307E0104A02EB4312002196
:104DA8005160516191610133012B10DC03EB430227
:104DB8000B4901EB0212526A002AEDDD03EB4302B4
:104DC800074901EB0212516A01395162EBE710BC45
:104DD80070477047AC070020500800206C0700207F
:104DE800F00700207047FEE7FEE7FEE7FEE77047A2
:104DF8007047704708B5FDF7EBFBFDF7FCF908BDF8
:104E080008B51B4B5B6913F4007303D04FF40073B0
:104E1800174A5361164A526912F4807F05D0144A22
:104E28004FF48071516143F40073114A526912F0D2
:104E3800800F03D00E4A802151610B430C4A5269FE
:104E480012F0400F03D00A4A402151610B43084A2F
:104E5800526912F0200F03D0054A202151610B43FB
:104E680013F4E75F00D108BDFFF7B4FEFBE700BF0E
:104E78000004014008B5214B5B6913F4004303D0DB
:104E88004FF400431D4A53611C4A526912F4804F83
:104E980004D01A4A4FF4804151610B43174A5269B2
:104EA80012F4005F04D0154A4FF4005151610B43CE
:104EB800124A526912F4805F04D0104A4FF48051AC
:104EC80051610B430D4A526912F4006F04D00B4A2A
:104ED8004FF4006151610B43084A526912F4806F24
:104EE80004D0064A4FF4806151610B4313F4E75F25
:104EF80000D108BDFFF76EFEFBE700BF00040140CC
:104F080008B50248FEF75AF808BD00BF2401002082
:104F180008B50248FEF752F808BD00BF6801002036
:104F280008B50248FCF739FE08BD00BFAC010020F7
:104F3800002103E00B4B5B58435004310A480B4BEC
:104F480042189A42F6D30A4A02E0002342F8043B88
:104F5800084B9A42F9D3FEF7A7F900F00FF8FEF7CD
:104F6800B7FE7047585A0008000000208C00002047
:104F7800900000206C080020FEE7000070B50026B5
:104F88000C4D0D4C641BA410A64209D100F0AAFCDC
:104F980000260A4D0A4C641BA410A64205D170BD18
:104FA80055F8043B98470136EEE755F8043B984717
:104FB8000136F2E7505A0008505A0008505A0008C3
:104FC800545A000803460244934200D1704703F83C
:104FD800011BF9E70EB46FF0004100B59CB01DABA2
:104FE80002900690079104910848094953F8042B48
:104FF8000591006802A9019300F068F80022029B5D
:105008001A701CB05DF804EB03B07047280000204C
:105018000802FFFF2DE9F0478E6882469E420C4643
:1050280090461F4638D88A8912F4906F32D0256886
:1050380009690133A5EB010965694B4405EB450591
:1050480005EBD5756D109D4238BF1D46530531D50A
:10505800294600F06FFB064650B90C234FF0FF308D
:10506800CAF80030A38943F04003A381BDE8F08764
:105078004A46216900F0CEFAA38923F4906343F0ED
:105088008003A38126614E4426603E466561A5EBF8
:105098000905A560BE4200D93E4632464146206811
:1050A80000F0C6FAA36800209B1BA3602368334462
:1050B8002360DBE72A4600F0B1FB06460028E1D171
:1050C8005046216900F0CEFAC7E700002DE9F04FFD
:1050D80098468B8907461B060D4614469DB00ED58B
:1050E8000B6963B9402100F025FB2860286120B9CD
:1050F8000C233B604FF0FF30D1E040236B6100236D
:10510800099320238DF8293030234FF00109CDF879
:105118000C80DFF8A4818DF82A3023469A4613F8CC
:10512800012B0AB1252AF9D1BAEB040B0BD05B4647
:10513800224629463846FFF76DFF013000F0AA8065
:10514800099A5A4409929AF80030002B00F0A2807C
:1051580000234FF0FF32CDE905230AF1010A049339
:1051680007938DF853301A935446052214F8011BFF
:10517800514800F041FA049AD8B9D00644BF202318
:105188008DF85330110744BF2B238DF853309AF80C
:1051980000302A2B15D0544600204FF00A0C079AED
:1051A800214611F8013B303B092B4ED9B0B107928B
:1051B80014E0A0EB080309FA03F31343A24604938F
:1051C800D2E7039B191D1B680391002BBBBF5B42F1
:1051D80042F0020207930793B8BF049223782E2B5C
:1051E8000CD163782A2B35D1039B02341A1D1B6816
:1051F8000392002BB8BF4FF0FF330593DFF8BCA034
:1052080003225046217800F0F7F940B14023A0EB83
:105218000A0003FA00F0049B01340343049314F8D2
:10522800011B062226488DF8281000F0E5F9002811
:1052380038D0244B1BBB039B073323F007030833E9
:105248000393099B3344099367E70C4601200CFB41
:105258000232A5E700234FF00A0C194601340593E2
:10526800204610F8012B303A092A03D9002BC5D063
:105278000591C3E7044601230CFB0121F0E703ABCA
:1052880000932A463846104B04A9AFF30080421C0D
:105298000646D6D1AB895B063FF52CAF09981DB001
:1052A800BDE8F08F03AB00932A463846064B04A9A5
:1052B80000F07CF8EBE700BF1C5A0008225A0008EF
:1052C800265A0008000000001D5000082DE9F0478C
:1052D800164699468A680B6907469342B8BF134633
:1052E800336091F843200C46DDF820800AB1013381
:1052F80033602368990642BF3368023333602568F8
:1053080015F0060506D104F1190AE36832689B1AFC
:10531800AB4228DC94F84320131E226818BF0123EF
:1053280092062DD44946384604F14302C04701305D
:1053380020D02368E56803F00603042B18BF002576
:1053480032684FF00006A36808BFAD1A226908BF8B
:1053580025EAE5759342C4BF9B1AED181A34B54285
:105368001AD1002008E00123524649463846C04772
:10537800013003D14FF0FF30BDE8F0870135C4E7B5
:105388003020E11881F843005A1C94F84510224453
:10539800023382F84310C5E70123224649463846BE
:1053A800C0470130E6D00136D9E700002DE9FF47B4
:1053B8000F7E9146782F80460C469A460C9D01F147
:1053C800430207D8622F0AD8002F00F0D980582F3F
:1053D80000F0A48004F1420584F842703AE0A7F195
:1053E8006303152BF6D801A151F823F04D5400089A
:1053F80061540008DD530008DD530008DD53000840
:10540800DD53000861540008DD530008DD5300082F
:10541800DD530008DD5300086F550008915400085B
:1054280051550008DD530008DD5300089155000868
:10543800DD53000891540008DD530008DD530008CF
:10544800595500082B681A1D1B682A6004F142058B
:1054580084F842300123A4E020682968060601F197
:1054680004030AD50E682B60002E03DA2D2376423A
:1054780084F843300A235E4819E00E6810F0400FA4
:105488002B6018BF36B2EFE72B682068191D29601A
:10549800010601D51E6802E04606FBD51E886F2F5F
:1054A8000CBF08230A235248002184F8431065687A
:1054B800002DA8BF2168A560A4BF21F004012160C8
:1054C8000EB9002D4DD01546B6FBF3F103FB11675D
:1054D800C75D05F8017D3746BB420E46F4D9082B57
:1054E8000BD12368DE0708D5236961689942DEBFBE
:1054F800302305F8013C05F1FF35521B22614B466C
:1055080021464046CDF800A003AAFFF7DFFE013090
:105518004CD14FF0FF3004B0BDE8F087344881F833
:1055280045702968236851F8046B29601D0614D555
:10553800DF0744BF43F0200323601EB9236823F02C
:10554800200323601023AFE7236843F02003236080
:105558007823284884F84530E3E7590648BFB6B2AF
:10556800E6E71546BBE72B682668181D61692860C1
:1055780035061B6801D5196002E07006FBD5198055
:10558800002315462361BAE72B6800211A1D2A60FB
:105598001D686268284600F02FF808B1401B60605B
:1055A80063682361002384F84330A8E72A46494604
:1055B80040462369D0470130ABD023689B0713D4FA
:1055C800E068039B9842B8BF1846A4E70123324617
:1055D80049464046D04701309BD00135E3680399DE
:1055E8005B1AAB42F2DCEBE7002504F11906F5E79C
:1055F8002D5A00083E5A0008034610B5C9B20244A5
:105608009342184601D1002003E0047801338C420C
:10561800F6D110BD0A44914200F1FF3300D1704722
:1056280010B511F8014B914203F8014FF9D110BDA3
:10563800884210B501EB020402D98442234607D8F8
:10564800431EA14208D011F8012B03F8012FF8E7F7
:10565800014602448A4200D110BD13F8014D02F8F8
:10566800014DF7E738B50546002940D051F8043C0C
:105678000C1F002BB8BFE41800F010F91C4A13687F
:1056880033B9636014602846BDE8384000F00CB9AF
:10569800A34208D9206821188B4201BF19685B68AA
:1056A80009182160EDE71A465B680BB1A342FAD9E5
:1056B80011685018A0420BD1206801445018834249
:1056C8001160E0D118685B68014411605360DAE743
:1056D80002D90C232B60D6E7206821188B4201BF22
:1056E80019685B680918216063605460CBE738BDAE
:1056F8005808002070B50E4E0C463168054611B9A1
:1057080000F0BCF830602146284600F0B7F8431C8A
:105718000AD0C41C24F00304A04207D0211A28464A
:1057280000F0ACF8013001D14FF0FF34204670BDD5
:105738005C0800202DE9F041CD1C25F00305083553
:105748000C2D38BF0C25002D074601DBA94205D9D1
:105758000C2300263B603046BDE8F0812E4E00F059
:105768009DF833681C4634BB29463846FFF7C2FF0C
:10577800431C04464DD134682646002E40D1236888
:105788003146384604EB030800F078F880453AD1F2
:10579800216803356D1A25F0030508350C2D38BF2F
:1057A8000C2538462946FFF7A5FF01302BD0236882
:1057B8002B4423600EE02268521B1ED40B2A16D9F4
:1057C8006119A342256018BF5960636808BF31603A
:1057D80062514B60384604F10B0600F065F826F07C
:1057E8000706231DF21AB6D09B1BA350B3E76268C5
:1057F800A3420CBF32605A60ECE723466468B2E704
:1058080034467668B9E70C2338463B6000F04CF81C
:10581800A1E72560DEE700BF580800202DE9F04128
:10582800804614460E4621B91146BDE8F041FFF7FF
:1058380081BF2AB9FFF716FF25462846BDE8F08143
:1058480000F038F88442074602D8B4EB500F12D85B
:1058580021464046FFF76EFF05460028EDD0BC42C2
:105868002246314628BF3A46FFF7D4FE3146404625
:10587800FFF7F8FEE1E73546DFE7000038B500231B
:10588800054D044608462B6000F01EF8431C02D163
:105898002B6803B1236038BD60080020014800F080
:1058A80011B800BF64080020014800F00CB800BF20
:1058B8006408002051F8043C181F002BBCBF0B588B
:1058C800C018704770477047044A05491368002B91
:1058D80008BF0B4618441060184670476808002037
:1058E80070080020F8B500BFF8BC08BC9E46704799
:0C58F800F8B500BFF8BC08BC9E46704725
:1059040002030405060708090A0B0C0D0E0F1010FC
:105914000000000000000000000000000102030479
:105924000607080900000000010203047372632FD4
:1059340073657475702E6300706F776572206F667F
:105944006620696E202564730D0A000000000201C0
:105954000405030000000000000000000000000037
:105964000000000000000000000000000000000033
:10597400000000000000000000000000FFFFFFFF27
:105984000000000001000000000000000000000012
:105994000000000000000000010000000000000002
:1059A40000000000FFFFFFFF0000000001000000F6
:1059B400FFFFFFFF000000000000000000000000E7
:1059C40000000000000000000000000000000000D3
:1059D4000000000000000000FFFFFFFF01000000C6
:1059E40000000000FFFFFFFF0000000000000000B7
:1059F40001000000000000000000000000000000A2
:105A0400000000000100000000000000FFFFFFFF95
:105A14000000000000000000232D302B2000686CE3
:105A24004C006566674546470030313233343536BD
:105A340037383941424344454600303132333435F6
:0C5A440036373839616263646566000023
:045A50000D0200083B
:045A5400E90100085C
:105A580000A24A046400000000002042D0070000B1
:105A6800D0070000D0070000D0070000D0070000D2
:105A7800D00700009A1925432C00002000000000E0
:105A8800000000000000000000000000000000000E
:105A980000000000000000000000000000000000FE
:105AA80000000000000000000000000000000000EE
:105AB80000000000000000000000000000000000DE
:105AC80000000000000000000000000000000000CE
